{
  "contractName": "CrowdFunding",
  "abi": [
    {
      "inputs": [
        {
          "internalType": "uint256",
          "name": "",
          "type": "uint256"
        }
      ],
      "name": "campaigns",
      "outputs": [
        {
          "internalType": "address",
          "name": "owner",
          "type": "address"
        },
        {
          "internalType": "string",
          "name": "title",
          "type": "string"
        },
        {
          "internalType": "string",
          "name": "description",
          "type": "string"
        },
        {
          "internalType": "uint256",
          "name": "target",
          "type": "uint256"
        },
        {
          "internalType": "uint256",
          "name": "deadline",
          "type": "uint256"
        },
        {
          "internalType": "uint256",
          "name": "amountCollected",
          "type": "uint256"
        },
        {
          "internalType": "string",
          "name": "image",
          "type": "string"
        }
      ],
      "stateMutability": "view",
      "type": "function",
      "constant": true
    },
    {
      "inputs": [],
      "name": "numberOfCampaigns",
      "outputs": [
        {
          "internalType": "uint256",
          "name": "",
          "type": "uint256"
        }
      ],
      "stateMutability": "view",
      "type": "function",
      "constant": true
    },
    {
      "inputs": [
        {
          "internalType": "address",
          "name": "",
          "type": "address"
        },
        {
          "internalType": "uint256",
          "name": "",
          "type": "uint256"
        }
      ],
      "name": "userDonations",
      "outputs": [
        {
          "internalType": "uint256",
          "name": "campaignId",
          "type": "uint256"
        },
        {
          "internalType": "uint256",
          "name": "amount",
          "type": "uint256"
        },
        {
          "internalType": "uint256",
          "name": "timestamp",
          "type": "uint256"
        }
      ],
      "stateMutability": "view",
      "type": "function",
      "constant": true
    },
    {
      "inputs": [
        {
          "internalType": "address",
          "name": "_owner",
          "type": "address"
        },
        {
          "internalType": "string",
          "name": "_title",
          "type": "string"
        },
        {
          "internalType": "string",
          "name": "_description",
          "type": "string"
        },
        {
          "internalType": "uint256",
          "name": "_target",
          "type": "uint256"
        },
        {
          "internalType": "uint256",
          "name": "_deadline",
          "type": "uint256"
        },
        {
          "internalType": "string",
          "name": "_image",
          "type": "string"
        }
      ],
      "name": "createCampaign",
      "outputs": [
        {
          "internalType": "uint256",
          "name": "",
          "type": "uint256"
        }
      ],
      "stateMutability": "nonpayable",
      "type": "function"
    },
    {
      "inputs": [
        {
          "internalType": "uint256",
          "name": "_id",
          "type": "uint256"
        }
      ],
      "name": "donateToCampaign",
      "outputs": [],
      "stateMutability": "payable",
      "type": "function",
      "payable": true
    },
    {
      "inputs": [
        {
          "internalType": "address",
          "name": "_user",
          "type": "address"
        }
      ],
      "name": "getUserDonations",
      "outputs": [
        {
          "components": [
            {
              "internalType": "uint256",
              "name": "campaignId",
              "type": "uint256"
            },
            {
              "internalType": "uint256",
              "name": "amount",
              "type": "uint256"
            },
            {
              "internalType": "uint256",
              "name": "timestamp",
              "type": "uint256"
            }
          ],
          "internalType": "struct CrowdFunding.DonationDetail[]",
          "name": "",
          "type": "tuple[]"
        }
      ],
      "stateMutability": "view",
      "type": "function",
      "constant": true
    },
    {
      "inputs": [],
      "name": "getCampaigns",
      "outputs": [
        {
          "components": [
            {
              "internalType": "address",
              "name": "owner",
              "type": "address"
            },
            {
              "internalType": "string",
              "name": "title",
              "type": "string"
            },
            {
              "internalType": "string",
              "name": "description",
              "type": "string"
            },
            {
              "internalType": "uint256",
              "name": "target",
              "type": "uint256"
            },
            {
              "internalType": "uint256",
              "name": "deadline",
              "type": "uint256"
            },
            {
              "internalType": "uint256",
              "name": "amountCollected",
              "type": "uint256"
            },
            {
              "internalType": "string",
              "name": "image",
              "type": "string"
            },
            {
              "internalType": "address[]",
              "name": "donators",
              "type": "address[]"
            },
            {
              "internalType": "uint256[]",
              "name": "donations",
              "type": "uint256[]"
            },
            {
              "internalType": "uint256[]",
              "name": "timestamps",
              "type": "uint256[]"
            }
          ],
          "internalType": "struct CrowdFunding.Campaign[]",
          "name": "",
          "type": "tuple[]"
        }
      ],
      "stateMutability": "view",
      "type": "function",
      "constant": true
    },
    {
      "inputs": [
        {
          "internalType": "uint256",
          "name": "_id",
          "type": "uint256"
        }
      ],
      "name": "getDonators",
      "outputs": [
        {
          "internalType": "address[]",
          "name": "",
          "type": "address[]"
        },
        {
          "internalType": "uint256[]",
          "name": "",
          "type": "uint256[]"
        },
        {
          "internalType": "uint256[]",
          "name": "",
          "type": "uint256[]"
        }
      ],
      "stateMutability": "view",
      "type": "function",
      "constant": true
    },
    {
      "inputs": [],
      "name": "getNumberOfCampaigns",
      "outputs": [
        {
          "internalType": "uint256",
          "name": "",
          "type": "uint256"
        }
      ],
      "stateMutability": "view",
      "type": "function",
      "constant": true
    }
  ],
  "bytecode": "0x6080604052600060025534801561001557600080fd5b506120aa806100256000396000f3fe6080604052600436106100865760003560e01c80634933e631116100595780634933e63114610154578063732435b2146101935780639943e3a1146101d0578063a6b036331461020d578063e4aafc2c1461023857610086565b806307ca140d1461008b5780630fa91fa9146100b6578063141961bc146100f557806342a4fda814610138575b600080fd5b34801561009757600080fd5b506100a0610263565b6040516100ad9190611282565b60405180910390f35b3480156100c257600080fd5b506100dd60048036038101906100d891906112dd565b610269565b6040516100ec939291906114b8565b60405180910390f35b34801561010157600080fd5b5061011c600480360381019061011791906112dd565b6103cb565b60405161012f97969594939291906115ac565b60405180910390f35b610152600480360381019061014d91906112dd565b6105c5565b005b34801561016057600080fd5b5061017b6004803603810190610176919061165c565b610875565b60405161018a9392919061169c565b60405180910390f35b34801561019f57600080fd5b506101ba60048036038101906101b591906116d3565b6108bc565b6040516101c791906117f1565b60405180910390f35b3480156101dc57600080fd5b506101f760048036038101906101f29190611948565b610977565b6040516102049190611282565b60405180910390f35b34801561021957600080fd5b50610222610c53565b60405161022f9190611d10565b60405180910390f35b34801561024457600080fd5b5061024d61107c565b60405161025a9190611282565b60405180910390f35b60025481565b606080606060006001600086815260200190815260200160002090508060070181600801826009018280548060200260200160405190810160405280929190818152602001828054801561031257602002820191906000526020600020905b8160009054906101000a900473ffffffffffffffffffffffffffffffffffffffff1673ffffffffffffffffffffffffffffffffffffffff16815260200190600101908083116102c8575b505050505092508180548060200260200160405190810160405280929190818152602001828054801561036457602002820191906000526020600020905b815481526020019060010190808311610350575b50505050509150808054806020026020016040519081016040528092919081815260200182805480156103b657602002820191906000526020600020905b8154815260200190600101908083116103a2575b50505050509050935093509350509193909250565b60016020528060005260406000206000915090508060000160009054906101000a900473ffffffffffffffffffffffffffffffffffffffff169080600101805461041490611d61565b80601f016020809104026020016040519081016040528092919081815260200182805461044090611d61565b801561048d5780601f106104625761010080835404028352916020019161048d565b820191906000526020600020905b81548152906001019060200180831161047057829003601f168201915b5050505050908060020180546104a290611d61565b80601f01602080910402602001604051908101604052809291908181526020018280546104ce90611d61565b801561051b5780601f106104f05761010080835404028352916020019161051b565b820191906000526020600020905b8154815290600101906020018083116104fe57829003601f168201915b50505050509080600301549080600401549080600501549080600601805461054290611d61565b80601f016020809104026020016040519081016040528092919081815260200182805461056e90611d61565b80156105bb5780601f10610590576101008083540402835291602001916105bb565b820191906000526020600020905b81548152906001019060200180831161059e57829003601f168201915b5050505050905087565b6000349050600060016000848152602001908152602001600020905080600401544210610627576040517f08c379a000000000000000000000000000000000000000000000000000000000815260040161061e90611ddf565b60405180910390fd5b80600701339080600181540180825580915050600190039060005260206000200160009091909190916101000a81548173ffffffffffffffffffffffffffffffffffffffff021916908373ffffffffffffffffffffffffffffffffffffffff16021790555080600801829080600181540180825580915050600190039060005260206000200160009091909190915055806009014290806001815401808255809150506001900390600052602060002001600090919091909150556000803373ffffffffffffffffffffffffffffffffffffffff1673ffffffffffffffffffffffffffffffffffffffff1681526020019081526020016000206040518060600160405280858152602001848152602001428152509080600181540180825580915050600190039060005260206000209060030201600090919091909150600082015181600001556020820151816001015560408201518160020155505060008160000160009054906101000a900473ffffffffffffffffffffffffffffffffffffffff1673ffffffffffffffffffffffffffffffffffffffff16836040516107ce90611e30565b60006040518083038185875af1925050503d806000811461080b576040519150601f19603f3d011682016040523d82523d6000602084013e610810565b606091505b5050905080610854576040517f08c379a000000000000000000000000000000000000000000000000000000000815260040161084b90611e91565b60405180910390fd5b828260050160008282546108689190611ee0565b9250508190555050505050565b6000602052816000526040600020818154811061089157600080fd5b9060005260206000209060030201600091509150508060000154908060010154908060020154905083565b60606000808373ffffffffffffffffffffffffffffffffffffffff1673ffffffffffffffffffffffffffffffffffffffff168152602001908152602001600020805480602002602001604051908101604052809291908181526020016000905b8282101561096c578382906000526020600020906003020160405180606001604052908160008201548152602001600182015481526020016002820154815250508152602001906001019061091c565b505050509050919050565b60004283116109bb576040517f08c379a00000000000000000000000000000000000000000000000000000000081526004016109b290611fa8565b60405180910390fd5b6040518061014001604052808873ffffffffffffffffffffffffffffffffffffffff16815260200187815260200186815260200185815260200184815260200160008152602001838152602001600067ffffffffffffffff811115610a2357610a2261181d565b5b604051908082528060200260200182016040528015610a515781602001602082028036833780820191505090505b508152602001600067ffffffffffffffff811115610a7257610a7161181d565b5b604051908082528060200260200182016040528015610aa05781602001602082028036833780820191505090505b508152602001600067ffffffffffffffff811115610ac157610ac061181d565b5b604051908082528060200260200182016040528015610aef5781602001602082028036833780820191505090505b5081525060016000600254815260200190815260200160002060008201518160000160006101000a81548173ffffffffffffffffffffffffffffffffffffffff021916908373ffffffffffffffffffffffffffffffffffffffff1602179055506020820151816001019080519060200190610b6b929190611086565b506040820151816002019080519060200190610b88929190611086565b50606082015181600301556080820151816004015560a0820151816005015560c0820151816006019080519060200190610bc3929190611086565b5060e0820151816007019080519060200190610be092919061110c565b50610100820151816008019080519060200190610bfe929190611196565b50610120820151816009019080519060200190610c1c929190611196565b5090505060026000815480929190610c3390611fc8565b91905055506001600254610c479190612011565b90509695505050505050565b6060600060025467ffffffffffffffff811115610c7357610c7261181d565b5b604051908082528060200260200182016040528015610cac57816020015b610c996111e3565b815260200190600190039081610c915790505b50905060005b6002548110156110745760016000828152602001908152602001600020604051806101400160405290816000820160009054906101000a900473ffffffffffffffffffffffffffffffffffffffff1673ffffffffffffffffffffffffffffffffffffffff1673ffffffffffffffffffffffffffffffffffffffff168152602001600182018054610d4190611d61565b80601f0160208091040260200160405190810160405280929190818152602001828054610d6d90611d61565b8015610dba5780601f10610d8f57610100808354040283529160200191610dba565b820191906000526020600020905b815481529060010190602001808311610d9d57829003601f168201915b50505050508152602001600282018054610dd390611d61565b80601f0160208091040260200160405190810160405280929190818152602001828054610dff90611d61565b8015610e4c5780601f10610e2157610100808354040283529160200191610e4c565b820191906000526020600020905b815481529060010190602001808311610e2f57829003601f168201915b50505050508152602001600382015481526020016004820154815260200160058201548152602001600682018054610e8390611d61565b80601f0160208091040260200160405190810160405280929190818152602001828054610eaf90611d61565b8015610efc5780601f10610ed157610100808354040283529160200191610efc565b820191906000526020600020905b815481529060010190602001808311610edf57829003601f168201915b5050505050815260200160078201805480602002602001604051908101604052809291908181526020018280548015610f8a57602002820191906000526020600020905b8160009054906101000a900473ffffffffffffffffffffffffffffffffffffffff1673ffffffffffffffffffffffffffffffffffffffff1681526020019060010190808311610f40575b5050505050815260200160088201805480602002602001604051908101604052809291908181526020018280548015610fe257602002820191906000526020600020905b815481526020019060010190808311610fce575b505050505081526020016009820180548060200260200160405190810160405280929190818152602001828054801561103a57602002820191906000526020600020905b815481526020019060010190808311611026575b50505050508152505082828151811061105657611055612045565b5b6020026020010181905250808061106c90611fc8565b915050610cb2565b508091505090565b6000600254905090565b82805461109290611d61565b90600052602060002090601f0160209004810192826110b457600085556110fb565b82601f106110cd57805160ff19168380011785556110fb565b828001600101855582156110fb579182015b828111156110fa5782518255916020019190600101906110df565b5b509050611108919061124c565b5090565b828054828255906000526020600020908101928215611185579160200282015b828111156111845782518260006101000a81548173ffffffffffffffffffffffffffffffffffffffff021916908373ffffffffffffffffffffffffffffffffffffffff1602179055509160200191906001019061112c565b5b509050611192919061124c565b5090565b8280548282559060005260206000209081019282156111d2579160200282015b828111156111d15782518255916020019190600101906111b6565b5b5090506111df919061124c565b5090565b604051806101400160405280600073ffffffffffffffffffffffffffffffffffffffff1681526020016060815260200160608152602001600081526020016000815260200160008152602001606081526020016060815260200160608152602001606081525090565b5b8082111561126557600081600090555060010161124d565b5090565b6000819050919050565b61127c81611269565b82525050565b60006020820190506112976000830184611273565b92915050565b6000604051905090565b600080fd5b600080fd5b6112ba81611269565b81146112c557600080fd5b50565b6000813590506112d7816112b1565b92915050565b6000602082840312156112f3576112f26112a7565b5b6000611301848285016112c8565b91505092915050565b600081519050919050565b600082825260208201905092915050565b6000819050602082019050919050565b600073ffffffffffffffffffffffffffffffffffffffff82169050919050565b600061136182611336565b9050919050565b61137181611356565b82525050565b60006113838383611368565b60208301905092915050565b6000602082019050919050565b60006113a78261130a565b6113b18185611315565b93506113bc83611326565b8060005b838110156113ed5781516113d48882611377565b97506113df8361138f565b9250506001810190506113c0565b5085935050505092915050565b600081519050919050565b600082825260208201905092915050565b6000819050602082019050919050565b61142f81611269565b82525050565b60006114418383611426565b60208301905092915050565b6000602082019050919050565b6000611465826113fa565b61146f8185611405565b935061147a83611416565b8060005b838110156114ab5781516114928882611435565b975061149d8361144d565b92505060018101905061147e565b5085935050505092915050565b600060608201905081810360008301526114d2818661139c565b905081810360208301526114e6818561145a565b905081810360408301526114fa818461145a565b9050949350505050565b61150d81611356565b82525050565b600081519050919050565b600082825260208201905092915050565b60005b8381101561154d578082015181840152602081019050611532565b8381111561155c576000848401525b50505050565b6000601f19601f8301169050919050565b600061157e82611513565b611588818561151e565b935061159881856020860161152f565b6115a181611562565b840191505092915050565b600060e0820190506115c1600083018a611504565b81810360208301526115d38189611573565b905081810360408301526115e78188611573565b90506115f66060830187611273565b6116036080830186611273565b61161060a0830185611273565b81810360c08301526116228184611573565b905098975050505050505050565b61163981611356565b811461164457600080fd5b50565b60008135905061165681611630565b92915050565b60008060408385031215611673576116726112a7565b5b600061168185828601611647565b9250506020611692858286016112c8565b9150509250929050565b60006060820190506116b16000830186611273565b6116be6020830185611273565b6116cb6040830184611273565b949350505050565b6000602082840312156116e9576116e86112a7565b5b60006116f784828501611647565b91505092915050565b600081519050919050565b600082825260208201905092915050565b6000819050602082019050919050565b6060820160008201516117426000850182611426565b5060208201516117556020850182611426565b5060408201516117686040850182611426565b50505050565b600061177a838361172c565b60608301905092915050565b6000602082019050919050565b600061179e82611700565b6117a8818561170b565b93506117b38361171c565b8060005b838110156117e45781516117cb888261176e565b97506117d683611786565b9250506001810190506117b7565b5085935050505092915050565b6000602082019050818103600083015261180b8184611793565b905092915050565b600080fd5b600080fd5b7f4e487b7100000000000000000000000000000000000000000000000000000000600052604160045260246000fd5b61185582611562565b810181811067ffffffffffffffff821117156118745761187361181d565b5b80604052505050565b600061188761129d565b9050611893828261184c565b919050565b600067ffffffffffffffff8211156118b3576118b261181d565b5b6118bc82611562565b9050602081019050919050565b82818337600083830152505050565b60006118eb6118e684611898565b61187d565b90508281526020810184848401111561190757611906611818565b5b6119128482856118c9565b509392505050565b600082601f83011261192f5761192e611813565b5b813561193f8482602086016118d8565b91505092915050565b60008060008060008060c08789031215611965576119646112a7565b5b600061197389828a01611647565b965050602087013567ffffffffffffffff811115611994576119936112ac565b5b6119a089828a0161191a565b955050604087013567ffffffffffffffff8111156119c1576119c06112ac565b5b6119cd89828a0161191a565b94505060606119de89828a016112c8565b93505060806119ef89828a016112c8565b92505060a087013567ffffffffffffffff811115611a1057611a0f6112ac565b5b611a1c89828a0161191a565b9150509295509295509295565b600081519050919050565b600082825260208201905092915050565b6000819050602082019050919050565b600082825260208201905092915050565b6000611a7182611513565b611a7b8185611a55565b9350611a8b81856020860161152f565b611a9481611562565b840191505092915050565b600082825260208201905092915050565b6000611abb8261130a565b611ac58185611a9f565b9350611ad083611326565b8060005b83811015611b01578151611ae88882611377565b9750611af38361138f565b925050600181019050611ad4565b5085935050505092915050565b600082825260208201905092915050565b6000611b2a826113fa565b611b348185611b0e565b9350611b3f83611416565b8060005b83811015611b70578151611b578882611435565b9750611b628361144d565b925050600181019050611b43565b5085935050505092915050565b600061014083016000830151611b966000860182611368565b5060208301518482036020860152611bae8282611a66565b91505060408301518482036040860152611bc88282611a66565b9150506060830151611bdd6060860182611426565b506080830151611bf06080860182611426565b5060a0830151611c0360a0860182611426565b5060c083015184820360c0860152611c1b8282611a66565b91505060e083015184820360e0860152611c358282611ab0565b915050610100830151848203610100860152611c518282611b1f565b915050610120830151848203610120860152611c6d8282611b1f565b9150508091505092915050565b6000611c868383611b7d565b905092915050565b6000602082019050919050565b6000611ca682611a29565b611cb08185611a34565b935083602082028501611cc285611a45565b8060005b85811015611cfe5784840389528151611cdf8582611c7a565b9450611cea83611c8e565b925060208a01995050600181019050611cc6565b50829750879550505050505092915050565b60006020820190508181036000830152611d2a8184611c9b565b905092915050565b7f4e487b7100000000000000000000000000000000000000000000000000000000600052602260045260246000fd5b60006002820490506001821680611d7957607f821691505b60208210811415611d8d57611d8c611d32565b5b50919050565b7f43616d706169676e2068617320656e6465642e00000000000000000000000000600082015250565b6000611dc960138361151e565b9150611dd482611d93565b602082019050919050565b60006020820190508181036000830152611df881611dbc565b9050919050565b600081905092915050565b50565b6000611e1a600083611dff565b9150611e2582611e0a565b600082019050919050565b6000611e3b82611e0d565b9150819050919050565b7f4661696c656420746f207472616e7366657220646f6e6174696f6e2e00000000600082015250565b6000611e7b601c8361151e565b9150611e8682611e45565b602082019050919050565b60006020820190508181036000830152611eaa81611e6e565b9050919050565b7f4e487b7100000000000000000000000000000000000000000000000000000000600052601160045260246000fd5b6000611eeb82611269565b9150611ef683611269565b9250827fffffffffffffffffffffffffffffffffffffffffffffffffffffffffffffffff03821115611f2b57611f2a611eb1565b5b828201905092915050565b7f54686520646561646c696e652073686f756c642062652061206461746520696e60008201527f20746865206675747572652e0000000000000000000000000000000000000000602082015250565b6000611f92602c8361151e565b9150611f9d82611f36565b604082019050919050565b60006020820190508181036000830152611fc181611f85565b9050919050565b6000611fd382611269565b91507fffffffffffffffffffffffffffffffffffffffffffffffffffffffffffffffff82141561200657612005611eb1565b5b600182019050919050565b600061201c82611269565b915061202783611269565b92508282101561203a57612039611eb1565b5b828203905092915050565b7f4e487b7100000000000000000000000000000000000000000000000000000000600052603260045260246000fdfea264697066735822122039207c4c2c63d17bedf1e44bf261672e11dc7a677e5565ddaff9ce836080401664736f6c63430008090033",
  "immutableReferences": {},
  "source": "// SPDX-License-Identifier: UNLICENSED\r\npragma solidity ^0.8.9;\r\n\r\ncontract CrowdFunding {\r\n    struct DonationDetail {\r\n        uint256 campaignId;\r\n        uint256 amount;\r\n        uint256 timestamp;\r\n    }\r\n\r\n    struct Campaign {\r\n        address owner;\r\n        string title;\r\n        string description;\r\n        uint256 target;\r\n        uint256 deadline;\r\n        uint256 amountCollected;\r\n        string image;\r\n        address[] donators;\r\n        uint256[] donations;\r\n        uint256[] timestamps;\r\n    }\r\n\r\n    // Track all donations for each user\r\n    mapping(address => DonationDetail[]) public userDonations;\r\n\r\n    mapping(uint256 => Campaign) public campaigns;\r\n    uint256 public numberOfCampaigns = 0;\r\n\r\n    // Create a new campaign\r\n    function createCampaign(\r\n        address _owner,\r\n        string memory _title,\r\n        string memory _description,\r\n        uint256 _target,\r\n        uint256 _deadline,\r\n        string memory _image\r\n    ) public returns (uint256) {\r\n        require(_deadline > block.timestamp, \"The deadline should be a date in the future.\");\r\n\r\n        // Initialize the campaign with proper array allocations\r\n        campaigns[numberOfCampaigns] = Campaign({\r\n            owner: _owner,\r\n            title: _title,\r\n            description: _description,\r\n            target: _target,\r\n            deadline: _deadline,\r\n            amountCollected: 0,\r\n            image: _image,\r\n            donators: new address[](0), // Initialize as an empty array\r\n            donations: new uint256[](0), // Initialize as an empty array\r\n            timestamps: new uint256[](0)  // Initialize as an empty array\r\n        });\r\n\r\n        numberOfCampaigns++;\r\n        return numberOfCampaigns - 1;\r\n    }\r\n\r\n    // Donate to a campaign\r\n    function donateToCampaign(uint256 _id) public payable {\r\n        uint256 amount = msg.value;\r\n        Campaign storage campaign = campaigns[_id];\r\n\r\n        require(block.timestamp < campaign.deadline, \"Campaign has ended.\");\r\n\r\n        // Record donation details in the campaign\r\n        campaign.donators.push(msg.sender);\r\n        campaign.donations.push(amount);\r\n        campaign.timestamps.push(block.timestamp);\r\n\r\n        // Track the user's donation\r\n        userDonations[msg.sender].push(DonationDetail({\r\n            campaignId: _id,\r\n            amount: amount,\r\n            timestamp: block.timestamp\r\n        }));\r\n\r\n        // Transfer the donation amount to the campaign owner\r\n        (bool sent, ) = payable(campaign.owner).call{value: amount}(\"\");\r\n        require(sent, \"Failed to transfer donation.\");\r\n\r\n        campaign.amountCollected += amount;\r\n    }\r\n\r\n    // Retrieve all donations made by a user across campaigns\r\n    function getUserDonations(address _user) \r\n        public \r\n        view \r\n        returns (DonationDetail[] memory) \r\n    {\r\n        return userDonations[_user];\r\n    }\r\n\r\n    // Retrieve campaigns\r\n    function getCampaigns() public view returns (Campaign[] memory) {\r\n        Campaign[] memory allCampaigns = new Campaign[](numberOfCampaigns);\r\n\r\n        for (uint256 i = 0; i < numberOfCampaigns; i++) {\r\n            allCampaigns[i] = campaigns[i];\r\n        }\r\n\r\n        return allCampaigns;\r\n    }\r\n\r\n    // Get donators and donations for a specific campaign\r\n    function getDonators(uint256 _id) \r\n        public \r\n        view \r\n        returns (address[] memory, uint256[] memory, uint256[] memory) \r\n    {\r\n        Campaign storage campaign = campaigns[_id];\r\n        return (campaign.donators, campaign.donations, campaign.timestamps);\r\n    }\r\n\r\n    function getNumberOfCampaigns() public view returns (uint256) {\r\n        return numberOfCampaigns;\r\n    }\r\n}\r\n",
  "sourcePath": "C:\\Users\\Admin\\CNN\\CrowdFunding-Holesky\\truffle web3\\contracts\\CrowdFunding.sol",
  "compiler": {
    "name": "solc",
    "version": "0.8.9+commit.e5eed63a.Emscripten.clang"
  },
  "schemaVersion": "3.4.16",
  "updatedAt": "2024-10-17T12:02:57.756Z",
  "networkType": "ethereum",
  "devdoc": {
    "kind": "dev",
    "methods": {},
    "version": 1
  },
  "userdoc": {
    "kind": "user",
    "methods": {},
    "version": 1
  }
}